{
  "_format": "hh-sol-artifact-1",
  "contractName": "NFT",
  "sourceName": "contracts/NFT.sol",
  "abi": [
    {
      "inputs": [],
      "stateMutability": "nonpayable",
      "type": "constructor"
    },
    {
      "anonymous": false,
      "inputs": [
        {
          "indexed": true,
          "internalType": "address",
          "name": "owner",
          "type": "address"
        },
        {
          "indexed": true,
          "internalType": "address",
          "name": "approved",
          "type": "address"
        },
        {
          "indexed": true,
          "internalType": "uint256",
          "name": "tokenId",
          "type": "uint256"
        }
      ],
      "name": "Approval",
      "type": "event"
    },
    {
      "anonymous": false,
      "inputs": [
        {
          "indexed": true,
          "internalType": "address",
          "name": "owner",
          "type": "address"
        },
        {
          "indexed": true,
          "internalType": "address",
          "name": "operator",
          "type": "address"
        },
        {
          "indexed": false,
          "internalType": "bool",
          "name": "approved",
          "type": "bool"
        }
      ],
      "name": "ApprovalForAll",
      "type": "event"
    },
    {
      "anonymous": false,
      "inputs": [
        {
          "indexed": true,
          "internalType": "address",
          "name": "previousOwner",
          "type": "address"
        },
        {
          "indexed": true,
          "internalType": "address",
          "name": "newOwner",
          "type": "address"
        }
      ],
      "name": "OwnershipTransferred",
      "type": "event"
    },
    {
      "anonymous": false,
      "inputs": [
        {
          "indexed": true,
          "internalType": "address",
          "name": "from",
          "type": "address"
        },
        {
          "indexed": true,
          "internalType": "address",
          "name": "to",
          "type": "address"
        },
        {
          "indexed": true,
          "internalType": "uint256",
          "name": "tokenId",
          "type": "uint256"
        }
      ],
      "name": "Transfer",
      "type": "event"
    },
    {
      "inputs": [
        {
          "internalType": "address",
          "name": "to",
          "type": "address"
        },
        {
          "internalType": "uint256",
          "name": "tokenId",
          "type": "uint256"
        }
      ],
      "name": "approve",
      "outputs": [],
      "stateMutability": "nonpayable",
      "type": "function"
    },
    {
      "inputs": [
        {
          "internalType": "address",
          "name": "owner",
          "type": "address"
        }
      ],
      "name": "balanceOf",
      "outputs": [
        {
          "internalType": "uint256",
          "name": "",
          "type": "uint256"
        }
      ],
      "stateMutability": "view",
      "type": "function"
    },
    {
      "inputs": [
        {
          "internalType": "uint256",
          "name": "tokenId",
          "type": "uint256"
        }
      ],
      "name": "getApproved",
      "outputs": [
        {
          "internalType": "address",
          "name": "",
          "type": "address"
        }
      ],
      "stateMutability": "view",
      "type": "function"
    },
    {
      "inputs": [
        {
          "internalType": "address",
          "name": "owner",
          "type": "address"
        },
        {
          "internalType": "address",
          "name": "operator",
          "type": "address"
        }
      ],
      "name": "isApprovedForAll",
      "outputs": [
        {
          "internalType": "bool",
          "name": "",
          "type": "bool"
        }
      ],
      "stateMutability": "view",
      "type": "function"
    },
    {
      "inputs": [
        {
          "internalType": "address",
          "name": "recipient",
          "type": "address"
        },
        {
          "internalType": "string",
          "name": "_tokenURI",
          "type": "string"
        }
      ],
      "name": "minNFT",
      "outputs": [
        {
          "internalType": "uint256",
          "name": "",
          "type": "uint256"
        }
      ],
      "stateMutability": "nonpayable",
      "type": "function"
    },
    {
      "inputs": [
        {
          "internalType": "string",
          "name": "_tokenURI",
          "type": "string"
        }
      ],
      "name": "minNFTPaid",
      "outputs": [
        {
          "internalType": "uint256",
          "name": "",
          "type": "uint256"
        }
      ],
      "stateMutability": "payable",
      "type": "function"
    },
    {
      "inputs": [],
      "name": "mintPrice",
      "outputs": [
        {
          "internalType": "uint256",
          "name": "",
          "type": "uint256"
        }
      ],
      "stateMutability": "view",
      "type": "function"
    },
    {
      "inputs": [],
      "name": "name",
      "outputs": [
        {
          "internalType": "string",
          "name": "",
          "type": "string"
        }
      ],
      "stateMutability": "view",
      "type": "function"
    },
    {
      "inputs": [],
      "name": "owner",
      "outputs": [
        {
          "internalType": "address",
          "name": "",
          "type": "address"
        }
      ],
      "stateMutability": "view",
      "type": "function"
    },
    {
      "inputs": [
        {
          "internalType": "uint256",
          "name": "tokenId",
          "type": "uint256"
        }
      ],
      "name": "ownerOf",
      "outputs": [
        {
          "internalType": "address",
          "name": "",
          "type": "address"
        }
      ],
      "stateMutability": "view",
      "type": "function"
    },
    {
      "inputs": [],
      "name": "renounceOwnership",
      "outputs": [],
      "stateMutability": "nonpayable",
      "type": "function"
    },
    {
      "inputs": [
        {
          "internalType": "address",
          "name": "from",
          "type": "address"
        },
        {
          "internalType": "address",
          "name": "to",
          "type": "address"
        },
        {
          "internalType": "uint256",
          "name": "tokenId",
          "type": "uint256"
        }
      ],
      "name": "safeTransferFrom",
      "outputs": [],
      "stateMutability": "nonpayable",
      "type": "function"
    },
    {
      "inputs": [
        {
          "internalType": "address",
          "name": "from",
          "type": "address"
        },
        {
          "internalType": "address",
          "name": "to",
          "type": "address"
        },
        {
          "internalType": "uint256",
          "name": "tokenId",
          "type": "uint256"
        },
        {
          "internalType": "bytes",
          "name": "data",
          "type": "bytes"
        }
      ],
      "name": "safeTransferFrom",
      "outputs": [],
      "stateMutability": "nonpayable",
      "type": "function"
    },
    {
      "inputs": [
        {
          "internalType": "address",
          "name": "operator",
          "type": "address"
        },
        {
          "internalType": "bool",
          "name": "approved",
          "type": "bool"
        }
      ],
      "name": "setApprovalForAll",
      "outputs": [],
      "stateMutability": "nonpayable",
      "type": "function"
    },
    {
      "inputs": [
        {
          "internalType": "uint256",
          "name": "newPrice",
          "type": "uint256"
        }
      ],
      "name": "setMintPrice",
      "outputs": [],
      "stateMutability": "nonpayable",
      "type": "function"
    },
    {
      "inputs": [
        {
          "internalType": "string",
          "name": "baseUri",
          "type": "string"
        }
      ],
      "name": "setbaseUri",
      "outputs": [],
      "stateMutability": "nonpayable",
      "type": "function"
    },
    {
      "inputs": [
        {
          "internalType": "bytes4",
          "name": "interfaceId",
          "type": "bytes4"
        }
      ],
      "name": "supportsInterface",
      "outputs": [
        {
          "internalType": "bool",
          "name": "",
          "type": "bool"
        }
      ],
      "stateMutability": "view",
      "type": "function"
    },
    {
      "inputs": [],
      "name": "symbol",
      "outputs": [
        {
          "internalType": "string",
          "name": "",
          "type": "string"
        }
      ],
      "stateMutability": "view",
      "type": "function"
    },
    {
      "inputs": [
        {
          "internalType": "uint256",
          "name": "tokenId",
          "type": "uint256"
        }
      ],
      "name": "tokenURI",
      "outputs": [
        {
          "internalType": "string",
          "name": "",
          "type": "string"
        }
      ],
      "stateMutability": "view",
      "type": "function"
    },
    {
      "inputs": [
        {
          "internalType": "address",
          "name": "from",
          "type": "address"
        },
        {
          "internalType": "address",
          "name": "to",
          "type": "address"
        },
        {
          "internalType": "uint256",
          "name": "tokenId",
          "type": "uint256"
        }
      ],
      "name": "transferFrom",
      "outputs": [],
      "stateMutability": "nonpayable",
      "type": "function"
    },
    {
      "inputs": [
        {
          "internalType": "address",
          "name": "newOwner",
          "type": "address"
        }
      ],
      "name": "transferOwnership",
      "outputs": [],
      "stateMutability": "nonpayable",
      "type": "function"
    }
  ],
  "bytecode": "0x608060405264174876e800600a5534801561001957600080fd5b506040518060400160405280600381526020017f4e465400000000000000000000000000000000000000000000000000000000008152506040518060400160405280600381526020017f4e46540000000000000000000000000000000000000000000000000000000000815250816000908161009591906103e7565b5080600190816100a591906103e7565b5050506100c46100b96100c960201b60201c565b6100d160201b60201c565b6104b9565b600033905090565b6000600660009054906101000a900473ffffffffffffffffffffffffffffffffffffffff16905081600660006101000a81548173ffffffffffffffffffffffffffffffffffffffff021916908373ffffffffffffffffffffffffffffffffffffffff1602179055508173ffffffffffffffffffffffffffffffffffffffff168173ffffffffffffffffffffffffffffffffffffffff167f8be0079c531659141344cd1fd0a4f28419497f9722a3daafe3b4186f6b6457e060405160405180910390a35050565b600081519050919050565b7f4e487b7100000000000000000000000000000000000000000000000000000000600052604160045260246000fd5b7f4e487b7100000000000000000000000000000000000000000000000000000000600052602260045260246000fd5b6000600282049050600182168061021857607f821691505b60208210810361022b5761022a6101d1565b5b50919050565b60008190508160005260206000209050919050565b60006020601f8301049050919050565b600082821b905092915050565b6000600883026102937fffffffffffffffffffffffffffffffffffffffffffffffffffffffffffffffff82610256565b61029d8683610256565b95508019841693508086168417925050509392505050565b6000819050919050565b6000819050919050565b60006102e46102df6102da846102b5565b6102bf565b6102b5565b9050919050565b6000819050919050565b6102fe836102c9565b61031261030a826102eb565b848454610263565b825550505050565b600090565b61032761031a565b6103328184846102f5565b505050565b5b818110156103565761034b60008261031f565b600181019050610338565b5050565b601f82111561039b5761036c81610231565b61037584610246565b81016020851015610384578190505b61039861039085610246565b830182610337565b50505b505050565b600082821c905092915050565b60006103be600019846008026103a0565b1980831691505092915050565b60006103d783836103ad565b9150826002028217905092915050565b6103f082610197565b67ffffffffffffffff811115610409576104086101a2565b5b6104138254610200565b61041e82828561035a565b600060209050601f831160018114610451576000841561043f578287015190505b61044985826103cb565b8655506104b1565b601f19841661045f86610231565b60005b8281101561048757848901518255600182019150602085019450602081019050610462565b868310156104a457848901516104a0601f8916826103ad565b8355505b6001600288020188555050505b505050505050565b6130bc806104c86000396000f3fe60806040526004361061012a5760003560e01c8063715018a6116100ab578063adb24b181161006f578063adb24b18146103e3578063b88d4fde14610420578063c87b56dd14610449578063e985e9c514610486578063f2fde38b146104c3578063f4a0a528146104ec5761012a565b8063715018a6146103245780638da5cb5b1461033b57806395d89b411461036657806397c8a68b14610391578063a22cb465146103ba5761012a565b806323b872dd116100f257806323b872dd1461022d57806342842e0e146102565780636352211e1461027f5780636817c76c146102bc57806370a08231146102e75761012a565b806301ffc9a71461012f57806303ed29eb1461016c57806306fdde031461019c578063081812fc146101c7578063095ea7b314610204575b600080fd5b34801561013b57600080fd5b5061015660048036038101906101519190611df8565b610515565b6040516101639190611e40565b60405180910390f35b61018660048036038101906101819190611fa1565b6105f7565b6040516101939190612003565b60405180910390f35b3480156101a857600080fd5b506101b1610672565b6040516101be919061209d565b60405180910390f35b3480156101d357600080fd5b506101ee60048036038101906101e991906120eb565b610704565b6040516101fb9190612159565b60405180910390f35b34801561021057600080fd5b5061022b600480360381019061022691906121a0565b61074a565b005b34801561023957600080fd5b50610254600480360381019061024f91906121e0565b610861565b005b34801561026257600080fd5b5061027d600480360381019061027891906121e0565b6108c1565b005b34801561028b57600080fd5b506102a660048036038101906102a191906120eb565b6108e1565b6040516102b39190612159565b60405180910390f35b3480156102c857600080fd5b506102d1610967565b6040516102de9190612003565b60405180910390f35b3480156102f357600080fd5b5061030e60048036038101906103099190612233565b61096d565b60405161031b9190612003565b60405180910390f35b34801561033057600080fd5b50610339610a24565b005b34801561034757600080fd5b50610350610a38565b60405161035d9190612159565b60405180910390f35b34801561037257600080fd5b5061037b610a62565b604051610388919061209d565b60405180910390f35b34801561039d57600080fd5b506103b860048036038101906103b39190611fa1565b610af4565b005b3480156103c657600080fd5b506103e160048036038101906103dc919061228c565b610b0f565b005b3480156103ef57600080fd5b5061040a600480360381019061040591906122cc565b610b25565b6040516104179190612003565b60405180910390f35b34801561042c57600080fd5b50610447600480360381019061044291906123c9565b610b65565b005b34801561045557600080fd5b50610470600480360381019061046b91906120eb565b610bc7565b60405161047d919061209d565b60405180910390f35b34801561049257600080fd5b506104ad60048036038101906104a8919061244c565b610d39565b6040516104ba9190611e40565b60405180910390f35b3480156104cf57600080fd5b506104ea60048036038101906104e59190612233565b610dcd565b005b3480156104f857600080fd5b50610513600480360381019061050e91906120eb565b610e50565b005b60007f80ac58cd000000000000000000000000000000000000000000000000000000007bffffffffffffffffffffffffffffffffffffffffffffffffffffffff1916827bffffffffffffffffffffffffffffffffffffffffffffffffffffffff191614806105e057507f5b5e139f000000000000000000000000000000000000000000000000000000007bffffffffffffffffffffffffffffffffffffffffffffffffffffffff1916827bffffffffffffffffffffffffffffffffffffffffffffffffffffffff1916145b806105f057506105ef82610e62565b5b9050919050565b6000600a54341461063d576040517f08c379a0000000000000000000000000000000000000000000000000000000008152600401610634906124d8565b60405180910390fd5b6106476007610ecc565b60006106536007610ee2565b905061065f3382610ef0565b610669818461110d565b80915050919050565b60606000805461068190612527565b80601f01602080910402602001604051908101604052809291908181526020018280546106ad90612527565b80156106fa5780601f106106cf576101008083540402835291602001916106fa565b820191906000526020600020905b8154815290600101906020018083116106dd57829003601f168201915b5050505050905090565b600061070f8261117a565b6004600083815260200190815260200160002060009054906101000a900473ffffffffffffffffffffffffffffffffffffffff169050919050565b6000610755826108e1565b90508073ffffffffffffffffffffffffffffffffffffffff168373ffffffffffffffffffffffffffffffffffffffff16036107c5576040517f08c379a00000000000000000000000000000000000000000000000000000000081526004016107bc906125ca565b60405180910390fd5b8073ffffffffffffffffffffffffffffffffffffffff166107e46111c5565b73ffffffffffffffffffffffffffffffffffffffff16148061081357506108128161080d6111c5565b610d39565b5b610852576040517f08c379a00000000000000000000000000000000000000000000000000000000081526004016108499061265c565b60405180910390fd5b61085c83836111cd565b505050565b61087261086c6111c5565b82611286565b6108b1576040517f08c379a00000000000000000000000000000000000000000000000000000000081526004016108a8906126ee565b60405180910390fd5b6108bc83838361131b565b505050565b6108dc83838360405180602001604052806000815250610b65565b505050565b6000806108ed83611614565b9050600073ffffffffffffffffffffffffffffffffffffffff168173ffffffffffffffffffffffffffffffffffffffff160361095e576040517f08c379a00000000000000000000000000000000000000000000000000000000081526004016109559061275a565b60405180910390fd5b80915050919050565b600a5481565b60008073ffffffffffffffffffffffffffffffffffffffff168273ffffffffffffffffffffffffffffffffffffffff16036109dd576040517f08c379a00000000000000000000000000000000000000000000000000000000081526004016109d4906127ec565b60405180910390fd5b600360008373ffffffffffffffffffffffffffffffffffffffff1673ffffffffffffffffffffffffffffffffffffffff168152602001908152602001600020549050919050565b610a2c611651565b610a3660006116cf565b565b6000600660009054906101000a900473ffffffffffffffffffffffffffffffffffffffff16905090565b606060018054610a7190612527565b80601f0160208091040260200160405190810160405280929190818152602001828054610a9d90612527565b8015610aea5780601f10610abf57610100808354040283529160200191610aea565b820191906000526020600020905b815481529060010190602001808311610acd57829003601f168201915b5050505050905090565b610afc611651565b8060099081610b0b91906129b8565b5050565b610b21610b1a6111c5565b8383611795565b5050565b6000610b2f611651565b610b396007610ecc565b6000610b456007610ee2565b9050610b518482610ef0565b610b5b818461110d565b8091505092915050565b610b76610b706111c5565b83611286565b610bb5576040517f08c379a0000000000000000000000000000000000000000000000000000000008152600401610bac906126ee565b60405180910390fd5b610bc184848484611901565b50505050565b6060610bd28261195d565b610c11576040517f08c379a0000000000000000000000000000000000000000000000000000000008152600401610c0890612afc565b60405180910390fd5b6000600860008481526020019081526020016000208054610c3190612527565b80601f0160208091040260200160405190810160405280929190818152602001828054610c5d90612527565b8015610caa5780601f10610c7f57610100808354040283529160200191610caa565b820191906000526020600020905b815481529060010190602001808311610c8d57829003601f168201915b505050505090506000610cbb61199e565b90506000815103610cd0578192505050610d34565b600082511115610d05578082604051602001610ced929190612b58565b60405160208183030381529060405292505050610d34565b80610d0f856119b5565b604051602001610d20929190612b58565b604051602081830303815290604052925050505b919050565b6000600560008473ffffffffffffffffffffffffffffffffffffffff1673ffffffffffffffffffffffffffffffffffffffff16815260200190815260200160002060008373ffffffffffffffffffffffffffffffffffffffff1673ffffffffffffffffffffffffffffffffffffffff16815260200190815260200160002060009054906101000a900460ff16905092915050565b610dd5611651565b600073ffffffffffffffffffffffffffffffffffffffff168173ffffffffffffffffffffffffffffffffffffffff1603610e44576040517f08c379a0000000000000000000000000000000000000000000000000000000008152600401610e3b90612bee565b60405180910390fd5b610e4d816116cf565b50565b610e58611651565b80600a8190555050565b60007f01ffc9a7000000000000000000000000000000000000000000000000000000007bffffffffffffffffffffffffffffffffffffffffffffffffffffffff1916827bffffffffffffffffffffffffffffffffffffffffffffffffffffffff1916149050919050565b6001816000016000828254019250508190555050565b600081600001549050919050565b600073ffffffffffffffffffffffffffffffffffffffff168273ffffffffffffffffffffffffffffffffffffffff1603610f5f576040517f08c379a0000000000000000000000000000000000000000000000000000000008152600401610f5690612c5a565b60405180910390fd5b610f688161195d565b15610fa8576040517f08c379a0000000000000000000000000000000000000000000000000000000008152600401610f9f90612cc6565b60405180910390fd5b610fb6600083836001611a83565b610fbf8161195d565b15610fff576040517f08c379a0000000000000000000000000000000000000000000000000000000008152600401610ff690612cc6565b60405180910390fd5b6001600360008473ffffffffffffffffffffffffffffffffffffffff1673ffffffffffffffffffffffffffffffffffffffff16815260200190815260200160002060008282540192505081905550816002600083815260200190815260200160002060006101000a81548173ffffffffffffffffffffffffffffffffffffffff021916908373ffffffffffffffffffffffffffffffffffffffff160217905550808273ffffffffffffffffffffffffffffffffffffffff16600073ffffffffffffffffffffffffffffffffffffffff167fddf252ad1be2c89b69c2b068fc378daa952ba7f163c4a11628f55a4df523b3ef60405160405180910390a4611109600083836001611a89565b5050565b6111168261195d565b611155576040517f08c379a000000000000000000000000000000000000000000000000000000000815260040161114c90612afc565b60405180910390fd5b8060086000848152602001908152602001600020908161117591906129b8565b505050565b6111838161195d565b6111c2576040517f08c379a00000000000000000000000000000000000000000000000000000000081526004016111b99061275a565b60405180910390fd5b50565b600033905090565b816004600083815260200190815260200160002060006101000a81548173ffffffffffffffffffffffffffffffffffffffff021916908373ffffffffffffffffffffffffffffffffffffffff160217905550808273ffffffffffffffffffffffffffffffffffffffff16611240836108e1565b73ffffffffffffffffffffffffffffffffffffffff167f8c5be1e5ebec7d5bd14f71427d1e84f3dd0314c0f7b2291e5b200ac8c7c3b92560405160405180910390a45050565b600080611292836108e1565b90508073ffffffffffffffffffffffffffffffffffffffff168473ffffffffffffffffffffffffffffffffffffffff1614806112d457506112d38185610d39565b5b8061131257508373ffffffffffffffffffffffffffffffffffffffff166112fa84610704565b73ffffffffffffffffffffffffffffffffffffffff16145b91505092915050565b8273ffffffffffffffffffffffffffffffffffffffff1661133b826108e1565b73ffffffffffffffffffffffffffffffffffffffff1614611391576040517f08c379a000000000000000000000000000000000000000000000000000000000815260040161138890612d58565b60405180910390fd5b600073ffffffffffffffffffffffffffffffffffffffff168273ffffffffffffffffffffffffffffffffffffffff1603611400576040517f08c379a00000000000000000000000000000000000000000000000000000000081526004016113f790612dea565b60405180910390fd5b61140d8383836001611a83565b8273ffffffffffffffffffffffffffffffffffffffff1661142d826108e1565b73ffffffffffffffffffffffffffffffffffffffff1614611483576040517f08c379a000000000000000000000000000000000000000000000000000000000815260040161147a90612d58565b60405180910390fd5b6004600082815260200190815260200160002060006101000a81549073ffffffffffffffffffffffffffffffffffffffff02191690556001600360008573ffffffffffffffffffffffffffffffffffffffff1673ffffffffffffffffffffffffffffffffffffffff168152602001908152602001600020600082825403925050819055506001600360008473ffffffffffffffffffffffffffffffffffffffff1673ffffffffffffffffffffffffffffffffffffffff16815260200190815260200160002060008282540192505081905550816002600083815260200190815260200160002060006101000a81548173ffffffffffffffffffffffffffffffffffffffff021916908373ffffffffffffffffffffffffffffffffffffffff160217905550808273ffffffffffffffffffffffffffffffffffffffff168473ffffffffffffffffffffffffffffffffffffffff167fddf252ad1be2c89b69c2b068fc378daa952ba7f163c4a11628f55a4df523b3ef60405160405180910390a461160f8383836001611a89565b505050565b60006002600083815260200190815260200160002060009054906101000a900473ffffffffffffffffffffffffffffffffffffffff169050919050565b6116596111c5565b73ffffffffffffffffffffffffffffffffffffffff16611677610a38565b73ffffffffffffffffffffffffffffffffffffffff16146116cd576040517f08c379a00000000000000000000000000000000000000000000000000000000081526004016116c490612e56565b60405180910390fd5b565b6000600660009054906101000a900473ffffffffffffffffffffffffffffffffffffffff16905081600660006101000a81548173ffffffffffffffffffffffffffffffffffffffff021916908373ffffffffffffffffffffffffffffffffffffffff1602179055508173ffffffffffffffffffffffffffffffffffffffff168173ffffffffffffffffffffffffffffffffffffffff167f8be0079c531659141344cd1fd0a4f28419497f9722a3daafe3b4186f6b6457e060405160405180910390a35050565b8173ffffffffffffffffffffffffffffffffffffffff168373ffffffffffffffffffffffffffffffffffffffff1603611803576040517f08c379a00000000000000000000000000000000000000000000000000000000081526004016117fa90612ec2565b60405180910390fd5b80600560008573ffffffffffffffffffffffffffffffffffffffff1673ffffffffffffffffffffffffffffffffffffffff16815260200190815260200160002060008473ffffffffffffffffffffffffffffffffffffffff1673ffffffffffffffffffffffffffffffffffffffff16815260200190815260200160002060006101000a81548160ff0219169083151502179055508173ffffffffffffffffffffffffffffffffffffffff168373ffffffffffffffffffffffffffffffffffffffff167f17307eab39ab6107e8899845ad3d59bd9653f200f220920489ca2b5937696c31836040516118f49190611e40565b60405180910390a3505050565b61190c84848461131b565b61191884848484611a8f565b611957576040517f08c379a000000000000000000000000000000000000000000000000000000000815260040161194e90612f54565b60405180910390fd5b50505050565b60008073ffffffffffffffffffffffffffffffffffffffff1661197f83611614565b73ffffffffffffffffffffffffffffffffffffffff1614159050919050565b606060405180602001604052806000815250905090565b6060600060016119c484611c16565b01905060008167ffffffffffffffff8111156119e3576119e2611e76565b5b6040519080825280601f01601f191660200182016040528015611a155781602001600182028036833780820191505090505b509050600082602001820190505b600115611a78578080600190039150507f3031323334353637383961626364656600000000000000000000000000000000600a86061a8153600a8581611a6c57611a6b612f74565b5b04945060008503611a23575b819350505050919050565b50505050565b50505050565b6000611ab08473ffffffffffffffffffffffffffffffffffffffff16611d69565b15611c09578373ffffffffffffffffffffffffffffffffffffffff1663150b7a02611ad96111c5565b8786866040518563ffffffff1660e01b8152600401611afb9493929190612ff8565b6020604051808303816000875af1925050508015611b3757506040513d601f19601f82011682018060405250810190611b349190613059565b60015b611bb9573d8060008114611b67576040519150601f19603f3d011682016040523d82523d6000602084013e611b6c565b606091505b506000815103611bb1576040517f08c379a0000000000000000000000000000000000000000000000000000000008152600401611ba890612f54565b60405180910390fd5b805181602001fd5b63150b7a0260e01b7bffffffffffffffffffffffffffffffffffffffffffffffffffffffff1916817bffffffffffffffffffffffffffffffffffffffffffffffffffffffff191614915050611c0e565b600190505b949350505050565b600080600090507a184f03e93ff9f4daa797ed6e38ed64bf6a1f0100000000000000008310611c74577a184f03e93ff9f4daa797ed6e38ed64bf6a1f0100000000000000008381611c6a57611c69612f74565b5b0492506040810190505b6d04ee2d6d415b85acef81000000008310611cb1576d04ee2d6d415b85acef81000000008381611ca757611ca6612f74565b5b0492506020810190505b662386f26fc100008310611ce057662386f26fc100008381611cd657611cd5612f74565b5b0492506010810190505b6305f5e1008310611d09576305f5e1008381611cff57611cfe612f74565b5b0492506008810190505b6127108310611d2e576127108381611d2457611d23612f74565b5b0492506004810190505b60648310611d515760648381611d4757611d46612f74565b5b0492506002810190505b600a8310611d60576001810190505b80915050919050565b6000808273ffffffffffffffffffffffffffffffffffffffff163b119050919050565b6000604051905090565b600080fd5b600080fd5b60007fffffffff0000000000000000000000000000000000000000000000000000000082169050919050565b611dd581611da0565b8114611de057600080fd5b50565b600081359050611df281611dcc565b92915050565b600060208284031215611e0e57611e0d611d96565b5b6000611e1c84828501611de3565b91505092915050565b60008115159050919050565b611e3a81611e25565b82525050565b6000602082019050611e556000830184611e31565b92915050565b600080fd5b600080fd5b6000601f19601f8301169050919050565b7f4e487b7100000000000000000000000000000000000000000000000000000000600052604160045260246000fd5b611eae82611e65565b810181811067ffffffffffffffff82111715611ecd57611ecc611e76565b5b80604052505050565b6000611ee0611d8c565b9050611eec8282611ea5565b919050565b600067ffffffffffffffff821115611f0c57611f0b611e76565b5b611f1582611e65565b9050602081019050919050565b82818337600083830152505050565b6000611f44611f3f84611ef1565b611ed6565b905082815260208101848484011115611f6057611f5f611e60565b5b611f6b848285611f22565b509392505050565b600082601f830112611f8857611f87611e5b565b5b8135611f98848260208601611f31565b91505092915050565b600060208284031215611fb757611fb6611d96565b5b600082013567ffffffffffffffff811115611fd557611fd4611d9b565b5b611fe184828501611f73565b91505092915050565b6000819050919050565b611ffd81611fea565b82525050565b60006020820190506120186000830184611ff4565b92915050565b600081519050919050565b600082825260208201905092915050565b60005b8381101561205857808201518184015260208101905061203d565b60008484015250505050565b600061206f8261201e565b6120798185612029565b935061208981856020860161203a565b61209281611e65565b840191505092915050565b600060208201905081810360008301526120b78184612064565b905092915050565b6120c881611fea565b81146120d357600080fd5b50565b6000813590506120e5816120bf565b92915050565b60006020828403121561210157612100611d96565b5b600061210f848285016120d6565b91505092915050565b600073ffffffffffffffffffffffffffffffffffffffff82169050919050565b600061214382612118565b9050919050565b61215381612138565b82525050565b600060208201905061216e600083018461214a565b92915050565b61217d81612138565b811461218857600080fd5b50565b60008135905061219a81612174565b92915050565b600080604083850312156121b7576121b6611d96565b5b60006121c58582860161218b565b92505060206121d6858286016120d6565b9150509250929050565b6000806000606084860312156121f9576121f8611d96565b5b60006122078682870161218b565b93505060206122188682870161218b565b9250506040612229868287016120d6565b9150509250925092565b60006020828403121561224957612248611d96565b5b60006122578482850161218b565b91505092915050565b61226981611e25565b811461227457600080fd5b50565b60008135905061228681612260565b92915050565b600080604083850312156122a3576122a2611d96565b5b60006122b18582860161218b565b92505060206122c285828601612277565b9150509250929050565b600080604083850312156122e3576122e2611d96565b5b60006122f18582860161218b565b925050602083013567ffffffffffffffff81111561231257612311611d9b565b5b61231e85828601611f73565b9150509250929050565b600067ffffffffffffffff82111561234357612342611e76565b5b61234c82611e65565b9050602081019050919050565b600061236c61236784612328565b611ed6565b90508281526020810184848401111561238857612387611e60565b5b612393848285611f22565b509392505050565b600082601f8301126123b0576123af611e5b565b5b81356123c0848260208601612359565b91505092915050565b600080600080608085870312156123e3576123e2611d96565b5b60006123f18782880161218b565b94505060206124028782880161218b565b9350506040612413878288016120d6565b925050606085013567ffffffffffffffff81111561243457612433611d9b565b5b6124408782880161239b565b91505092959194509250565b6000806040838503121561246357612462611d96565b5b60006124718582860161218b565b92505060206124828582860161218b565b9150509250929050565b7f5061676f20696e636f72726563746f0000000000000000000000000000000000600082015250565b60006124c2600f83612029565b91506124cd8261248c565b602082019050919050565b600060208201905081810360008301526124f1816124b5565b9050919050565b7f4e487b7100000000000000000000000000000000000000000000000000000000600052602260045260246000fd5b6000600282049050600182168061253f57607f821691505b602082108103612552576125516124f8565b5b50919050565b7f4552433732313a20617070726f76616c20746f2063757272656e74206f776e6560008201527f7200000000000000000000000000000000000000000000000000000000000000602082015250565b60006125b4602183612029565b91506125bf82612558565b604082019050919050565b600060208201905081810360008301526125e3816125a7565b9050919050565b7f4552433732313a20617070726f76652063616c6c6572206973206e6f7420746f60008201527f6b656e206f776e6572206f7220617070726f76656420666f7220616c6c000000602082015250565b6000612646603d83612029565b9150612651826125ea565b604082019050919050565b6000602082019050818103600083015261267581612639565b9050919050565b7f4552433732313a2063616c6c6572206973206e6f7420746f6b656e206f776e6560008201527f72206f7220617070726f76656400000000000000000000000000000000000000602082015250565b60006126d8602d83612029565b91506126e38261267c565b604082019050919050565b60006020820190508181036000830152612707816126cb565b9050919050565b7f4552433732313a20696e76616c696420746f6b656e2049440000000000000000600082015250565b6000612744601883612029565b915061274f8261270e565b602082019050919050565b6000602082019050818103600083015261277381612737565b9050919050565b7f4552433732313a2061646472657373207a65726f206973206e6f74206120766160008201527f6c6964206f776e65720000000000000000000000000000000000000000000000602082015250565b60006127d6602983612029565b91506127e18261277a565b604082019050919050565b60006020820190508181036000830152612805816127c9565b9050919050565b60008190508160005260206000209050919050565b60006020601f8301049050919050565b600082821b905092915050565b60006008830261286e7fffffffffffffffffffffffffffffffffffffffffffffffffffffffffffffffff82612831565b6128788683612831565b95508019841693508086168417925050509392505050565b6000819050919050565b60006128b56128b06128ab84611fea565b612890565b611fea565b9050919050565b6000819050919050565b6128cf8361289a565b6128e36128db826128bc565b84845461283e565b825550505050565b600090565b6128f86128eb565b6129038184846128c6565b505050565b5b818110156129275761291c6000826128f0565b600181019050612909565b5050565b601f82111561296c5761293d8161280c565b61294684612821565b81016020851015612955578190505b61296961296185612821565b830182612908565b50505b505050565b600082821c905092915050565b600061298f60001984600802612971565b1980831691505092915050565b60006129a8838361297e565b9150826002028217905092915050565b6129c18261201e565b67ffffffffffffffff8111156129da576129d9611e76565b5b6129e48254612527565b6129ef82828561292b565b600060209050601f831160018114612a225760008415612a10578287015190505b612a1a858261299c565b865550612a82565b601f198416612a308661280c565b60005b82811015612a5857848901518255600182019150602085019450602081019050612a33565b86831015612a755784890151612a71601f89168261297e565b8355505b6001600288020188555050505b505050505050565b7f4552433732314d4554413a55524920736574206f66206e6f6e6578697374207460008201527f6f6b656e00000000000000000000000000000000000000000000000000000000602082015250565b6000612ae6602483612029565b9150612af182612a8a565b604082019050919050565b60006020820190508181036000830152612b1581612ad9565b9050919050565b600081905092915050565b6000612b328261201e565b612b3c8185612b1c565b9350612b4c81856020860161203a565b80840191505092915050565b6000612b648285612b27565b9150612b708284612b27565b91508190509392505050565b7f4f776e61626c653a206e6577206f776e657220697320746865207a65726f206160008201527f6464726573730000000000000000000000000000000000000000000000000000602082015250565b6000612bd8602683612029565b9150612be382612b7c565b604082019050919050565b60006020820190508181036000830152612c0781612bcb565b9050919050565b7f4552433732313a206d696e7420746f20746865207a65726f2061646472657373600082015250565b6000612c44602083612029565b9150612c4f82612c0e565b602082019050919050565b60006020820190508181036000830152612c7381612c37565b9050919050565b7f4552433732313a20746f6b656e20616c7265616479206d696e74656400000000600082015250565b6000612cb0601c83612029565b9150612cbb82612c7a565b602082019050919050565b60006020820190508181036000830152612cdf81612ca3565b9050919050565b7f4552433732313a207472616e736665722066726f6d20696e636f72726563742060008201527f6f776e6572000000000000000000000000000000000000000000000000000000602082015250565b6000612d42602583612029565b9150612d4d82612ce6565b604082019050919050565b60006020820190508181036000830152612d7181612d35565b9050919050565b7f4552433732313a207472616e7366657220746f20746865207a65726f2061646460008201527f7265737300000000000000000000000000000000000000000000000000000000602082015250565b6000612dd4602483612029565b9150612ddf82612d78565b604082019050919050565b60006020820190508181036000830152612e0381612dc7565b9050919050565b7f4f776e61626c653a2063616c6c6572206973206e6f7420746865206f776e6572600082015250565b6000612e40602083612029565b9150612e4b82612e0a565b602082019050919050565b60006020820190508181036000830152612e6f81612e33565b9050919050565b7f4552433732313a20617070726f766520746f2063616c6c657200000000000000600082015250565b6000612eac601983612029565b9150612eb782612e76565b602082019050919050565b60006020820190508181036000830152612edb81612e9f565b9050919050565b7f4552433732313a207472616e7366657220746f206e6f6e20455243373231526560008201527f63656976657220696d706c656d656e7465720000000000000000000000000000602082015250565b6000612f3e603283612029565b9150612f4982612ee2565b604082019050919050565b60006020820190508181036000830152612f6d81612f31565b9050919050565b7f4e487b7100000000000000000000000000000000000000000000000000000000600052601260045260246000fd5b600081519050919050565b600082825260208201905092915050565b6000612fca82612fa3565b612fd48185612fae565b9350612fe481856020860161203a565b612fed81611e65565b840191505092915050565b600060808201905061300d600083018761214a565b61301a602083018661214a565b6130276040830185611ff4565b81810360608301526130398184612fbf565b905095945050505050565b60008151905061305381611dcc565b92915050565b60006020828403121561306f5761306e611d96565b5b600061307d84828501613044565b9150509291505056fea26469706673582212200083f53ecc2e0eb250ad8f59951df382a691443cf8f60bf8fe4ac9408347869c64736f6c634300081c0033",
  "linkReferences": {},
  "deployedLinkReferences": {}
}