{
  "_format": "hh-sol-artifact-1",
  "contractName": "NftsMarketplace",
  "sourceName": "contracts/Marketplace.sol",
  "abi": [
    {
      "inputs": [
        {
          "internalType": "address",
          "name": "_walletContractAddress",
          "type": "address"
        },
        {
          "internalType": "uint256",
          "name": "_feeToSellNFT",
          "type": "uint256"
        }
      ],
      "stateMutability": "nonpayable",
      "type": "constructor"
    },
    {
      "anonymous": false,
      "inputs": [
        {
          "indexed": true,
          "internalType": "address",
          "name": "to",
          "type": "address"
        },
        {
          "indexed": false,
          "internalType": "uint256",
          "name": "amount",
          "type": "uint256"
        }
      ],
      "name": "FeesWithdrawn",
      "type": "event"
    },
    {
      "anonymous": false,
      "inputs": [
        {
          "indexed": true,
          "internalType": "uint256",
          "name": "postedId",
          "type": "uint256"
        },
        {
          "indexed": true,
          "internalType": "address",
          "name": "buyer",
          "type": "address"
        },
        {
          "indexed": false,
          "internalType": "uint256",
          "name": "price",
          "type": "uint256"
        },
        {
          "indexed": false,
          "internalType": "uint256",
          "name": "feeForSelling",
          "type": "uint256"
        }
      ],
      "name": "NFTBought",
      "type": "event"
    },
    {
      "anonymous": false,
      "inputs": [
        {
          "indexed": true,
          "internalType": "uint256",
          "name": "postedId",
          "type": "uint256"
        },
        {
          "indexed": true,
          "internalType": "address",
          "name": "seller",
          "type": "address"
        },
        {
          "indexed": true,
          "internalType": "address",
          "name": "nftContractAddress",
          "type": "address"
        },
        {
          "indexed": false,
          "internalType": "uint256",
          "name": "tokenId",
          "type": "uint256"
        },
        {
          "indexed": false,
          "internalType": "uint256",
          "name": "price",
          "type": "uint256"
        }
      ],
      "name": "NFTPosted",
      "type": "event"
    },
    {
      "anonymous": false,
      "inputs": [
        {
          "indexed": true,
          "internalType": "address",
          "name": "previousOwner",
          "type": "address"
        },
        {
          "indexed": true,
          "internalType": "address",
          "name": "newOwner",
          "type": "address"
        }
      ],
      "name": "OwnershipTransferred",
      "type": "event"
    },
    {
      "anonymous": false,
      "inputs": [
        {
          "indexed": true,
          "internalType": "uint256",
          "name": "postedId",
          "type": "uint256"
        },
        {
          "indexed": true,
          "internalType": "address",
          "name": "seller",
          "type": "address"
        }
      ],
      "name": "PostingCancelled",
      "type": "event"
    },
    {
      "anonymous": false,
      "inputs": [
        {
          "indexed": true,
          "internalType": "address",
          "name": "oldWalletContractAddress",
          "type": "address"
        },
        {
          "indexed": true,
          "internalType": "address",
          "name": "newWalletContractAddress",
          "type": "address"
        }
      ],
      "name": "WalletContractAddresUpdated",
      "type": "event"
    },
    {
      "anonymous": false,
      "inputs": [
        {
          "indexed": false,
          "internalType": "uint256",
          "name": "oldFee",
          "type": "uint256"
        },
        {
          "indexed": false,
          "internalType": "uint256",
          "name": "newFee",
          "type": "uint256"
        }
      ],
      "name": "feeToSellNFTUpdated",
      "type": "event"
    },
    {
      "stateMutability": "payable",
      "type": "fallback"
    },
    {
      "inputs": [
        {
          "internalType": "uint256",
          "name": "postedId",
          "type": "uint256"
        }
      ],
      "name": "BuyNFT",
      "outputs": [],
      "stateMutability": "payable",
      "type": "function"
    },
    {
      "inputs": [
        {
          "internalType": "uint256",
          "name": "_nftProductId",
          "type": "uint256"
        }
      ],
      "name": "CancelNFTPosting",
      "outputs": [],
      "stateMutability": "nonpayable",
      "type": "function"
    },
    {
      "inputs": [
        {
          "internalType": "uint256",
          "name": "_nftPostingId",
          "type": "uint256"
        }
      ],
      "name": "GetNFTOnSale",
      "outputs": [
        {
          "components": [
            {
              "internalType": "uint256",
              "name": "id",
              "type": "uint256"
            },
            {
              "internalType": "address",
              "name": "nftContractAddress",
              "type": "address"
            },
            {
              "internalType": "uint256",
              "name": "tokenId",
              "type": "uint256"
            },
            {
              "internalType": "uint256",
              "name": "price",
              "type": "uint256"
            },
            {
              "internalType": "address payable",
              "name": "seller",
              "type": "address"
            },
            {
              "internalType": "bool",
              "name": "active",
              "type": "bool"
            },
            {
              "internalType": "bool",
              "name": "sold",
              "type": "bool"
            }
          ],
          "internalType": "struct NftsMarketplace.NtfProduct",
          "name": "",
          "type": "tuple"
        }
      ],
      "stateMutability": "view",
      "type": "function"
    },
    {
      "inputs": [],
      "name": "GetNFTsOnSale",
      "outputs": [
        {
          "components": [
            {
              "internalType": "uint256",
              "name": "id",
              "type": "uint256"
            },
            {
              "internalType": "address",
              "name": "nftContractAddress",
              "type": "address"
            },
            {
              "internalType": "uint256",
              "name": "tokenId",
              "type": "uint256"
            },
            {
              "internalType": "uint256",
              "name": "price",
              "type": "uint256"
            },
            {
              "internalType": "address payable",
              "name": "seller",
              "type": "address"
            },
            {
              "internalType": "bool",
              "name": "active",
              "type": "bool"
            },
            {
              "internalType": "bool",
              "name": "sold",
              "type": "bool"
            }
          ],
          "internalType": "struct NftsMarketplace.NtfProduct[]",
          "name": "",
          "type": "tuple[]"
        }
      ],
      "stateMutability": "view",
      "type": "function"
    },
    {
      "inputs": [
        {
          "internalType": "uint256",
          "name": "",
          "type": "uint256"
        }
      ],
      "name": "NftsProductsList",
      "outputs": [
        {
          "internalType": "uint256",
          "name": "id",
          "type": "uint256"
        },
        {
          "internalType": "address",
          "name": "nftContractAddress",
          "type": "address"
        },
        {
          "internalType": "uint256",
          "name": "tokenId",
          "type": "uint256"
        },
        {
          "internalType": "uint256",
          "name": "price",
          "type": "uint256"
        },
        {
          "internalType": "address payable",
          "name": "seller",
          "type": "address"
        },
        {
          "internalType": "bool",
          "name": "active",
          "type": "bool"
        },
        {
          "internalType": "bool",
          "name": "sold",
          "type": "bool"
        }
      ],
      "stateMutability": "view",
      "type": "function"
    },
    {
      "inputs": [
        {
          "internalType": "address",
          "name": "_nftContractAddress",
          "type": "address"
        },
        {
          "internalType": "uint256",
          "name": "_tokenId",
          "type": "uint256"
        },
        {
          "internalType": "uint256",
          "name": "_price",
          "type": "uint256"
        }
      ],
      "name": "PostNFTToSell",
      "outputs": [],
      "stateMutability": "nonpayable",
      "type": "function"
    },
    {
      "inputs": [
        {
          "internalType": "uint256",
          "name": "_feeToSellNFT",
          "type": "uint256"
        }
      ],
      "name": "SetNewFeeToSellNFT",
      "outputs": [],
      "stateMutability": "nonpayable",
      "type": "function"
    },
    {
      "inputs": [
        {
          "internalType": "address",
          "name": "_walletContratAddress",
          "type": "address"
        }
      ],
      "name": "SetWalletContractAddress",
      "outputs": [],
      "stateMutability": "nonpayable",
      "type": "function"
    },
    {
      "inputs": [],
      "name": "WithdrawPendingFees",
      "outputs": [],
      "stateMutability": "nonpayable",
      "type": "function"
    },
    {
      "inputs": [],
      "name": "WithdrawSellerPayments",
      "outputs": [],
      "stateMutability": "nonpayable",
      "type": "function"
    },
    {
      "inputs": [],
      "name": "feeToSellNFT",
      "outputs": [
        {
          "internalType": "uint256",
          "name": "",
          "type": "uint256"
        }
      ],
      "stateMutability": "view",
      "type": "function"
    },
    {
      "inputs": [],
      "name": "nextNftProductId",
      "outputs": [
        {
          "internalType": "uint256",
          "name": "",
          "type": "uint256"
        }
      ],
      "stateMutability": "view",
      "type": "function"
    },
    {
      "inputs": [],
      "name": "owner",
      "outputs": [
        {
          "internalType": "address",
          "name": "",
          "type": "address"
        }
      ],
      "stateMutability": "view",
      "type": "function"
    },
    {
      "inputs": [],
      "name": "pendingFeesToTransferToWallet",
      "outputs": [
        {
          "internalType": "uint256",
          "name": "",
          "type": "uint256"
        }
      ],
      "stateMutability": "view",
      "type": "function"
    },
    {
      "inputs": [
        {
          "internalType": "address",
          "name": "",
          "type": "address"
        }
      ],
      "name": "pendingSellerPayments",
      "outputs": [
        {
          "internalType": "uint256",
          "name": "",
          "type": "uint256"
        }
      ],
      "stateMutability": "view",
      "type": "function"
    },
    {
      "inputs": [],
      "name": "renounceOwnership",
      "outputs": [],
      "stateMutability": "nonpayable",
      "type": "function"
    },
    {
      "inputs": [],
      "name": "totalNFTsReadyToSell",
      "outputs": [
        {
          "internalType": "uint256",
          "name": "",
          "type": "uint256"
        }
      ],
      "stateMutability": "view",
      "type": "function"
    },
    {
      "inputs": [
        {
          "internalType": "address",
          "name": "newOwner",
          "type": "address"
        }
      ],
      "name": "transferOwnership",
      "outputs": [],
      "stateMutability": "nonpayable",
      "type": "function"
    },
    {
      "inputs": [],
      "name": "walletContractAddress",
      "outputs": [
        {
          "internalType": "address",
          "name": "",
          "type": "address"
        }
      ],
      "stateMutability": "view",
      "type": "function"
    },
    {
      "stateMutability": "payable",
      "type": "receive"
    }
  ],
  "bytecode": "0x608060405234801561001057600080fd5b50604051613331380380613331833981810160405281019061003291906102d7565b600160008190555061005661004b61017060201b60201c565b61017860201b60201c565b600073ffffffffffffffffffffffffffffffffffffffff168273ffffffffffffffffffffffffffffffffffffffff16036100c5576040517f08c379a00000000000000000000000000000000000000000000000000000000081526004016100bc90610374565b60405180910390fd5b6000811180156100d65750600a8111155b610115576040517f08c379a000000000000000000000000000000000000000000000000000000000815260040161010c90610406565b60405180910390fd5b81600660006101000a81548173ffffffffffffffffffffffffffffffffffffffff021916908373ffffffffffffffffffffffffffffffffffffffff1602179055506064816101639190610455565b6005819055505050610497565b600033905090565b6000600160009054906101000a900473ffffffffffffffffffffffffffffffffffffffff16905081600160006101000a81548173ffffffffffffffffffffffffffffffffffffffff021916908373ffffffffffffffffffffffffffffffffffffffff1602179055508173ffffffffffffffffffffffffffffffffffffffff168173ffffffffffffffffffffffffffffffffffffffff167f8be0079c531659141344cd1fd0a4f28419497f9722a3daafe3b4186f6b6457e060405160405180910390a35050565b600080fd5b600073ffffffffffffffffffffffffffffffffffffffff82169050919050565b600061026e82610243565b9050919050565b61027e81610263565b811461028957600080fd5b50565b60008151905061029b81610275565b92915050565b6000819050919050565b6102b4816102a1565b81146102bf57600080fd5b50565b6000815190506102d1816102ab565b92915050565b600080604083850312156102ee576102ed61023e565b5b60006102fc8582860161028c565b925050602061030d858286016102c2565b9150509250929050565b600082825260208201905092915050565b7f57616c6c657420696e76616c6964610000000000000000000000000000000000600082015250565b600061035e600f83610317565b915061036982610328565b602082019050919050565b6000602082019050818103600083015261038d81610351565b9050919050565b7f4c612074617269666120636f6272616461206465626520736572206d656e6f7260008201527f20616c2031302500000000000000000000000000000000000000000000000000602082015250565b60006103f0602783610317565b91506103fb82610394565b604082019050919050565b6000602082019050818103600083015261041f816103e3565b9050919050565b7f4e487b7100000000000000000000000000000000000000000000000000000000600052601160045260246000fd5b6000610460826102a1565b915061046b836102a1565b9250828202610479816102a1565b915082820484148315176104905761048f610426565b5b5092915050565b612e8b806104a66000396000f3fe6080604052600436106101185760003560e01c80638da5cb5b116100a0578063dd40c1bf11610064578063dd40c1bf14610386578063e30e7e401461039d578063f2fde38b146103c8578063fa0eea1e146103f1578063fede4e7d1461040857610119565b80638da5cb5b146102c2578063a37365e0146102ed578063aa1fa17314610309578063b8cc6efb14610332578063c3d8b2281461035b57610119565b806359d34217116100e757806359d3421714610203578063715018a61461022c578063853182d61461024357806385649b9e1461026e5780638bb1eb7d1461029757610119565b806321fb69fd1461011b5780632363990b1461015e5780632c122157146101895780632fc29ff9146101c657610119565b5b005b34801561012757600080fd5b50610142600480360381019061013d9190611cf6565b610433565b6040516101559796959493929190611daf565b60405180910390f35b34801561016a57600080fd5b506101736104cf565b6040516101809190611f97565b60405180910390f35b34801561019557600080fd5b506101b060048036038101906101ab9190611fe5565b6106d4565b6040516101bd9190612012565b60405180910390f35b3480156101d257600080fd5b506101ed60048036038101906101e89190611cf6565b6106ec565b6040516101fa91906120bb565b60405180910390f35b34801561020f57600080fd5b5061022a60048036038101906102259190611cf6565b6108a8565b005b34801561023857600080fd5b50610241610b28565b005b34801561024f57600080fd5b50610258610b3c565b6040516102659190612012565b60405180910390f35b34801561027a57600080fd5b50610295600480360381019061029091906120d6565b610b42565b005b3480156102a357600080fd5b506102ac610f68565b6040516102b99190612012565b60405180910390f35b3480156102ce57600080fd5b506102d7610f6e565b6040516102e49190612129565b60405180910390f35b61030760048036038101906103029190611cf6565b610f98565b005b34801561031557600080fd5b50610330600480360381019061032b9190611cf6565b6113f0565b005b34801561033e57600080fd5b5061035960048036038101906103549190611fe5565b6114ef565b005b34801561036757600080fd5b506103706116bc565b60405161037d9190612129565b60405180910390f35b34801561039257600080fd5b5061039b6116e2565b005b3480156103a957600080fd5b506103b261188e565b6040516103bf9190612012565b60405180910390f35b3480156103d457600080fd5b506103ef60048036038101906103ea9190611fe5565b611894565b005b3480156103fd57600080fd5b50610406611917565b005b34801561041457600080fd5b5061041d611aa3565b60405161042a9190612012565b60405180910390f35b60036020528060005260406000206000915090508060000154908060010160009054906101000a900473ffffffffffffffffffffffffffffffffffffffff16908060020154908060030154908060040160009054906101000a900473ffffffffffffffffffffffffffffffffffffffff16908060040160149054906101000a900460ff16908060040160159054906101000a900460ff16905087565b6060600060025490506000600454905060008167ffffffffffffffff8111156104fb576104fa612144565b5b60405190808252806020026020018201604052801561053457816020015b610521611c4e565b8152602001906001900390816105195790505b5090506000805b848110156106c95760006003600083815260200190815260200160002090508060040160149054906101000a900460ff16801561058757508060040160159054906101000a900460ff16155b156106bd57806040518060e0016040529081600082015481526020016001820160009054906101000a900473ffffffffffffffffffffffffffffffffffffffff1673ffffffffffffffffffffffffffffffffffffffff1673ffffffffffffffffffffffffffffffffffffffff16815260200160028201548152602001600382015481526020016004820160009054906101000a900473ffffffffffffffffffffffffffffffffffffffff1673ffffffffffffffffffffffffffffffffffffffff1673ffffffffffffffffffffffffffffffffffffffff1681526020016004820160149054906101000a900460ff161515151581526020016004820160159054906101000a900460ff1615151515815250508484815181106106ab576106aa612173565b5b60200260200101819052508260010192505b8160010191505061053b565b508194505050505090565b60086020528060005260406000206000915090505481565b6106f4611c4e565b6000600360008481526020019081526020016000206040518060e0016040529081600082015481526020016001820160009054906101000a900473ffffffffffffffffffffffffffffffffffffffff1673ffffffffffffffffffffffffffffffffffffffff1673ffffffffffffffffffffffffffffffffffffffff16815260200160028201548152602001600382015481526020016004820160009054906101000a900473ffffffffffffffffffffffffffffffffffffffff1673ffffffffffffffffffffffffffffffffffffffff1673ffffffffffffffffffffffffffffffffffffffff1681526020016004820160149054906101000a900460ff161515151581526020016004820160159054906101000a900460ff16151515158152505090508060a0015161085a576040517f08c379a0000000000000000000000000000000000000000000000000000000008152600401610851906121ff565b60405180910390fd5b8060c001511561089f576040517f08c379a00000000000000000000000000000000000000000000000000000000081526004016108969061226b565b60405180910390fd5b80915050919050565b6108b0611aa9565b60006003600083815260200190815260200160002090508060040160149054906101000a900460ff16610918576040517f08c379a000000000000000000000000000000000000000000000000000000000815260040161090f906122d7565b60405180910390fd5b8060040160159054906101000a900460ff161561096a576040517f08c379a00000000000000000000000000000000000000000000000000000000081526004016109619061226b565b60405180910390fd5b3373ffffffffffffffffffffffffffffffffffffffff168160040160009054906101000a900473ffffffffffffffffffffffffffffffffffffffff1673ffffffffffffffffffffffffffffffffffffffff16146109fc576040517f08c379a00000000000000000000000000000000000000000000000000000000081526004016109f390612369565b60405180910390fd5b60008160040160146101000a81548160ff0219169083151502179055508060010160009054906101000a900473ffffffffffffffffffffffffffffffffffffffff1673ffffffffffffffffffffffffffffffffffffffff166342842e0e308360040160009054906101000a900473ffffffffffffffffffffffffffffffffffffffff1684600201546040518463ffffffff1660e01b8152600401610aa2939291906123e8565b600060405180830381600087803b158015610abc57600080fd5b505af1158015610ad0573d6000803e3d6000fd5b505050503373ffffffffffffffffffffffffffffffffffffffff1681600001547f515d44d9d615640ae41130226655bcc705d8204cb58acab1713c972bd9f2ddcc60405160405180910390a350610b25611af8565b50565b610b30611b02565b610b3a6000611b80565b565b60075481565b610b4a611aa9565b60008111610b8d576040517f08c379a0000000000000000000000000000000000000000000000000000000008152600401610b849061246b565b60405180910390fd5b600073ffffffffffffffffffffffffffffffffffffffff168373ffffffffffffffffffffffffffffffffffffffff1603610bfc576040517f08c379a0000000000000000000000000000000000000000000000000000000008152600401610bf3906124d7565b60405180910390fd5b60008390503373ffffffffffffffffffffffffffffffffffffffff168173ffffffffffffffffffffffffffffffffffffffff16636352211e856040518263ffffffff1660e01b8152600401610c519190612012565b602060405180830381865afa158015610c6e573d6000803e3d6000fd5b505050506040513d601f19601f82011682018060405250810190610c92919061250c565b73ffffffffffffffffffffffffffffffffffffffff1614610ce8576040517f08c379a0000000000000000000000000000000000000000000000000000000008152600401610cdf90612585565b60405180910390fd5b8073ffffffffffffffffffffffffffffffffffffffff166323b872dd3330866040518463ffffffff1660e01b8152600401610d25939291906125a5565b600060405180830381600087803b158015610d3f57600080fd5b505af1158015610d53573d6000803e3d6000fd5b50505050600060026000815480929190610d6c9061260b565b9190505590506040518060e001604052808281526020018673ffffffffffffffffffffffffffffffffffffffff1681526020018581526020018481526020013373ffffffffffffffffffffffffffffffffffffffff16815260200160011515815260200160001515815250600360008381526020019081526020016000206000820151816000015560208201518160010160006101000a81548173ffffffffffffffffffffffffffffffffffffffff021916908373ffffffffffffffffffffffffffffffffffffffff160217905550604082015181600201556060820151816003015560808201518160040160006101000a81548173ffffffffffffffffffffffffffffffffffffffff021916908373ffffffffffffffffffffffffffffffffffffffff16021790555060a08201518160040160146101000a81548160ff02191690831515021790555060c08201518160040160156101000a81548160ff02191690831515021790555090505060046000815480929190610eec9061260b565b91905055508473ffffffffffffffffffffffffffffffffffffffff163373ffffffffffffffffffffffffffffffffffffffff16827f1f2f85103d612ad948a57b0f966828d48f52e88eeab7184f0724ced59b414c8b8787604051610f51929190612653565b60405180910390a45050610f63611af8565b505050565b60025481565b6000600160009054906101000a900473ffffffffffffffffffffffffffffffffffffffff16905090565b610fa0611aa9565b60006003600083815260200190815260200160002090508060040160149054906101000a900460ff16611008576040517f08c379a0000000000000000000000000000000000000000000000000000000008152600401610fff906126c8565b60405180910390fd5b8060040160159054906101000a900460ff161561105a576040517f08c379a00000000000000000000000000000000000000000000000000000000081526004016110519061226b565b60405180910390fd5b806003015434146110a0576040517f08c379a000000000000000000000000000000000000000000000000000000000815260040161109790612780565b60405180910390fd5b60008160040160146101000a81548160ff02191690831515021790555060018160040160156101000a81548160ff021916908315150217905550600061271060055483600301546110f191906127a0565b6110fb9190612811565b9050600081836003015461110f9190612842565b905060008211156111c9576000600660009054906101000a900473ffffffffffffffffffffffffffffffffffffffff1673ffffffffffffffffffffffffffffffffffffffff1683604051611162906128a7565b60006040518083038185875af1925050503d806000811461119f576040519150601f19603f3d011682016040523d82523d6000602084013e6111a4565b606091505b50509050806111c75782600760008282546111bf91906128bc565b925050819055505b505b60008360040160009054906101000a900473ffffffffffffffffffffffffffffffffffffffff1673ffffffffffffffffffffffffffffffffffffffff1682604051611213906128a7565b60006040518083038185875af1925050503d8060008114611250576040519150601f19603f3d011682016040523d82523d6000602084013e611255565b606091505b50509050806112d95781600860008660040160009054906101000a900473ffffffffffffffffffffffffffffffffffffffff1673ffffffffffffffffffffffffffffffffffffffff1673ffffffffffffffffffffffffffffffffffffffff16815260200190815260200160002060008282546112d191906128bc565b925050819055505b8360010160009054906101000a900473ffffffffffffffffffffffffffffffffffffffff1673ffffffffffffffffffffffffffffffffffffffff166342842e0e303387600201546040518463ffffffff1660e01b815260040161133e939291906125a5565b600060405180830381600087803b15801561135857600080fd5b505af115801561136c573d6000803e3d6000fd5b5050505060046000815480929190611383906128f0565b91905055503373ffffffffffffffffffffffffffffffffffffffff1684600001547f91eb978bee389413e604e8d376c186389b50bd623b6f380a36527976d618bd378660030154866040516113d9929190612653565b60405180910390a3505050506113ed611af8565b50565b6113f8611b02565b6000811180156114095750600a8111155b611448576040517f08c379a000000000000000000000000000000000000000000000000000000000815260040161143f9061298b565b60405180910390fd5b600554810361148c576040517f08c379a000000000000000000000000000000000000000000000000000000000815260040161148390612a1d565b60405180910390fd5b600060055490506064826114a091906127a0565b6005819055507fa708ec2f2c04370740e576f87a3cdbee36e69b8fb0929ba4df536961722f2bf5816064846114d591906127a0565b6040516114e3929190612653565b60405180910390a15050565b6114f7611b02565b600073ffffffffffffffffffffffffffffffffffffffff168173ffffffffffffffffffffffffffffffffffffffff1603611566576040517f08c379a000000000000000000000000000000000000000000000000000000000815260040161155d90612a89565b60405180910390fd5b600660009054906101000a900473ffffffffffffffffffffffffffffffffffffffff1673ffffffffffffffffffffffffffffffffffffffff168173ffffffffffffffffffffffffffffffffffffffff16036115f6576040517f08c379a00000000000000000000000000000000000000000000000000000000081526004016115ed90612af5565b60405180910390fd5b6000600660009054906101000a900473ffffffffffffffffffffffffffffffffffffffff16905081600660006101000a81548173ffffffffffffffffffffffffffffffffffffffff021916908373ffffffffffffffffffffffffffffffffffffffff1602179055508173ffffffffffffffffffffffffffffffffffffffff168173ffffffffffffffffffffffffffffffffffffffff167fe621693d86f3e587ae62752ff2ed8b4ff52b853a971c3fc52d52eec91c3178cb60405160405180910390a35050565b600660009054906101000a900473ffffffffffffffffffffffffffffffffffffffff1681565b6116ea611b02565b6116f2611aa9565b600060075490506000811161173c576040517f08c379a000000000000000000000000000000000000000000000000000000000815260040161173390612b87565b60405180910390fd5b60006007819055506000600660009054906101000a900473ffffffffffffffffffffffffffffffffffffffff1673ffffffffffffffffffffffffffffffffffffffff168260405161178c906128a7565b60006040518083038185875af1925050503d80600081146117c9576040519150601f19603f3d011682016040523d82523d6000602084013e6117ce565b606091505b5050905080611812576040517f08c379a000000000000000000000000000000000000000000000000000000000815260040161180990612bf3565b60405180910390fd5b600660009054906101000a900473ffffffffffffffffffffffffffffffffffffffff1673ffffffffffffffffffffffffffffffffffffffff167fc0819c13be868895eb93e40eaceb96de976442fa1d404e5c55f14bb65a8c489a8360405161187a9190612012565b60405180910390a2505061188c611af8565b565b60045481565b61189c611b02565b600073ffffffffffffffffffffffffffffffffffffffff168173ffffffffffffffffffffffffffffffffffffffff160361190b576040517f08c379a000000000000000000000000000000000000000000000000000000000815260040161190290612c85565b60405180910390fd5b61191481611b80565b50565b61191f611aa9565b6000600860003373ffffffffffffffffffffffffffffffffffffffff1673ffffffffffffffffffffffffffffffffffffffff168152602001908152602001600020549050600081116119a6576040517f08c379a000000000000000000000000000000000000000000000000000000000815260040161199d90612cf1565b60405180910390fd5b6000600860003373ffffffffffffffffffffffffffffffffffffffff1673ffffffffffffffffffffffffffffffffffffffff1681526020019081526020016000208190555060003373ffffffffffffffffffffffffffffffffffffffff1682604051611a11906128a7565b60006040518083038185875af1925050503d8060008114611a4e576040519150601f19603f3d011682016040523d82523d6000602084013e611a53565b606091505b5050905080611a97576040517f08c379a0000000000000000000000000000000000000000000000000000000008152600401611a8e90612d5d565b60405180910390fd5b5050611aa1611af8565b565b60055481565b600260005403611aee576040517f08c379a0000000000000000000000000000000000000000000000000000000008152600401611ae590612dc9565b60405180910390fd5b6002600081905550565b6001600081905550565b611b0a611c46565b73ffffffffffffffffffffffffffffffffffffffff16611b28610f6e565b73ffffffffffffffffffffffffffffffffffffffff1614611b7e576040517f08c379a0000000000000000000000000000000000000000000000000000000008152600401611b7590612e35565b60405180910390fd5b565b6000600160009054906101000a900473ffffffffffffffffffffffffffffffffffffffff16905081600160006101000a81548173ffffffffffffffffffffffffffffffffffffffff021916908373ffffffffffffffffffffffffffffffffffffffff1602179055508173ffffffffffffffffffffffffffffffffffffffff168173ffffffffffffffffffffffffffffffffffffffff167f8be0079c531659141344cd1fd0a4f28419497f9722a3daafe3b4186f6b6457e060405160405180910390a35050565b600033905090565b6040518060e0016040528060008152602001600073ffffffffffffffffffffffffffffffffffffffff1681526020016000815260200160008152602001600073ffffffffffffffffffffffffffffffffffffffff1681526020016000151581526020016000151581525090565b600080fd5b6000819050919050565b611cd381611cc0565b8114611cde57600080fd5b50565b600081359050611cf081611cca565b92915050565b600060208284031215611d0c57611d0b611cbb565b5b6000611d1a84828501611ce1565b91505092915050565b611d2c81611cc0565b82525050565b600073ffffffffffffffffffffffffffffffffffffffff82169050919050565b6000611d5d82611d32565b9050919050565b611d6d81611d52565b82525050565b6000611d7e82611d32565b9050919050565b611d8e81611d73565b82525050565b60008115159050919050565b611da981611d94565b82525050565b600060e082019050611dc4600083018a611d23565b611dd16020830189611d64565b611dde6040830188611d23565b611deb6060830187611d23565b611df86080830186611d85565b611e0560a0830185611da0565b611e1260c0830184611da0565b98975050505050505050565b600081519050919050565b600082825260208201905092915050565b6000819050602082019050919050565b611e5381611cc0565b82525050565b611e6281611d52565b82525050565b611e7181611d73565b82525050565b611e8081611d94565b82525050565b60e082016000820151611e9c6000850182611e4a565b506020820151611eaf6020850182611e59565b506040820151611ec26040850182611e4a565b506060820151611ed56060850182611e4a565b506080820151611ee86080850182611e68565b5060a0820151611efb60a0850182611e77565b5060c0820151611f0e60c0850182611e77565b50505050565b6000611f208383611e86565b60e08301905092915050565b6000602082019050919050565b6000611f4482611e1e565b611f4e8185611e29565b9350611f5983611e3a565b8060005b83811015611f8a578151611f718882611f14565b9750611f7c83611f2c565b925050600181019050611f5d565b5085935050505092915050565b60006020820190508181036000830152611fb18184611f39565b905092915050565b611fc281611d52565b8114611fcd57600080fd5b50565b600081359050611fdf81611fb9565b92915050565b600060208284031215611ffb57611ffa611cbb565b5b600061200984828501611fd0565b91505092915050565b60006020820190506120276000830184611d23565b92915050565b60e0820160008201516120436000850182611e4a565b5060208201516120566020850182611e59565b5060408201516120696040850182611e4a565b50606082015161207c6060850182611e4a565b50608082015161208f6080850182611e68565b5060a08201516120a260a0850182611e77565b5060c08201516120b560c0850182611e77565b50505050565b600060e0820190506120d0600083018461202d565b92915050565b6000806000606084860312156120ef576120ee611cbb565b5b60006120fd86828701611fd0565b935050602061210e86828701611ce1565b925050604061211f86828701611ce1565b9150509250925092565b600060208201905061213e6000830184611d64565b92915050565b7f4e487b7100000000000000000000000000000000000000000000000000000000600052604160045260246000fd5b7f4e487b7100000000000000000000000000000000000000000000000000000000600052603260045260246000fd5b600082825260208201905092915050565b7f456c204e4654206e6f20657374612061206c612076656e746100000000000000600082015250565b60006121e96019836121a2565b91506121f4826121b3565b602082019050919050565b60006020820190508181036000830152612218816121dc565b9050919050565b7f456c204e4654207961206675652076656e6469646f0000000000000000000000600082015250565b60006122556015836121a2565b91506122608261221f565b602082019050919050565b6000602082019050818103600083015261228481612248565b9050919050565b7f456c204e4654207961206e6f20657374612061206c612076656e746100000000600082015250565b60006122c1601c836121a2565b91506122cc8261228b565b602082019050919050565b600060208201905081810360008301526122f0816122b4565b9050919050565b7f536f6c6f20656c2070726f706965746172696f2070756564652063616e63656c60008201527f6172206c612076656e7461000000000000000000000000000000000000000000602082015250565b6000612353602b836121a2565b915061235e826122f7565b604082019050919050565b6000602082019050818103600083015261238281612346565b9050919050565b6000819050919050565b60006123ae6123a96123a484611d32565b612389565b611d32565b9050919050565b60006123c082612393565b9050919050565b60006123d2826123b5565b9050919050565b6123e2816123c7565b82525050565b60006060820190506123fd6000830186611d64565b61240a60208301856123d9565b6124176040830184611d23565b949350505050565b7f456c2070726563696f206465626520736572206d61796f722061203000000000600082015250565b6000612455601c836121a2565b91506124608261241f565b602082019050919050565b6000602082019050818103600083015261248481612448565b9050919050565b7f436f6e747261746f206465204e465420696e76616c69646f0000000000000000600082015250565b60006124c16018836121a2565b91506124cc8261248b565b602082019050919050565b600060208201905081810360008301526124f0816124b4565b9050919050565b60008151905061250681611fb9565b92915050565b60006020828403121561252257612521611cbb565b5b6000612530848285016124f7565b91505092915050565b7f456c204e4654206e6f2065732064652074752070726f70696564616400000000600082015250565b600061256f601c836121a2565b915061257a82612539565b602082019050919050565b6000602082019050818103600083015261259e81612562565b9050919050565b60006060820190506125ba6000830186611d64565b6125c76020830185611d64565b6125d46040830184611d23565b949350505050565b7f4e487b7100000000000000000000000000000000000000000000000000000000600052601160045260246000fd5b600061261682611cc0565b91507fffffffffffffffffffffffffffffffffffffffffffffffffffffffffffffffff8203612648576126476125dc565b5b600182019050919050565b60006040820190506126686000830185611d23565b6126756020830184611d23565b9392505050565b7f456c204e4654206e6f20657374612061637469766f0000000000000000000000600082015250565b60006126b26015836121a2565b91506126bd8261267c565b602082019050919050565b600060208201905081810360008301526126e1816126a5565b9050919050565b7f456c2070726563696f2061207061676172206e6f20636f696e636964652e205260008201527f65766973612071756520736561206c612063616e74696461642061646563756160208201527f6461000000000000000000000000000000000000000000000000000000000000604082015250565b600061276a6042836121a2565b9150612775826126e8565b606082019050919050565b600060208201905081810360008301526127998161275d565b9050919050565b60006127ab82611cc0565b91506127b683611cc0565b92508282026127c481611cc0565b915082820484148315176127db576127da6125dc565b5b5092915050565b7f4e487b7100000000000000000000000000000000000000000000000000000000600052601260045260246000fd5b600061281c82611cc0565b915061282783611cc0565b925082612837576128366127e2565b5b828204905092915050565b600061284d82611cc0565b915061285883611cc0565b92508282039050818111156128705761286f6125dc565b5b92915050565b600081905092915050565b50565b6000612891600083612876565b915061289c82612881565b600082019050919050565b60006128b282612884565b9150819050919050565b60006128c782611cc0565b91506128d283611cc0565b92508282019050808211156128ea576128e96125dc565b5b92915050565b60006128fb82611cc0565b91506000820361290e5761290d6125dc565b5b600182039050919050565b7f4c612074617269666120636f6272616461206465626520736572206d656e6f7260008201527f20616c2031302500000000000000000000000000000000000000000000000000602082015250565b60006129756027836121a2565b915061298082612919565b604082019050919050565b600060208201905081810360008301526129a481612968565b9050919050565b7f456c20636f6e747261746f207961206375656e746120636f6e2065736120746160008201527f7269666100000000000000000000000000000000000000000000000000000000602082015250565b6000612a076024836121a2565b9150612a12826129ab565b604082019050919050565b60006020820190508181036000830152612a36816129fa565b9050919050565b7f446972656363696f6e20696e76616c6964610000000000000000000000000000600082015250565b6000612a736012836121a2565b9150612a7e82612a3d565b602082019050919050565b60006020820190508181036000830152612aa281612a66565b9050919050565b7f456c20636f6e747261746f206465626520736572206469666572656e74650000600082015250565b6000612adf601e836121a2565b9150612aea82612aa9565b602082019050919050565b60006020820190508181036000830152612b0e81612ad2565b9050919050565b7f4e6f206861792063756f7461732070656e6469656e74657320706f722074726160008201527f6e73666572697200000000000000000000000000000000000000000000000000602082015250565b6000612b716027836121a2565b9150612b7c82612b15565b604082019050919050565b60006020820190508181036000830152612ba081612b64565b9050919050565b7f4c61207472616e73666572656e6369612066616c6c6f00000000000000000000600082015250565b6000612bdd6016836121a2565b9150612be882612ba7565b602082019050919050565b60006020820190508181036000830152612c0c81612bd0565b9050919050565b7f4f776e61626c653a206e6577206f776e657220697320746865207a65726f206160008201527f6464726573730000000000000000000000000000000000000000000000000000602082015250565b6000612c6f6026836121a2565b9150612c7a82612c13565b604082019050919050565b60006020820190508181036000830152612c9e81612c62565b9050919050565b7f4e6f20686179207061676f732070656e6469656e746573000000000000000000600082015250565b6000612cdb6017836121a2565b9150612ce682612ca5565b602082019050919050565b60006020820190508181036000830152612d0a81612cce565b9050919050565b7f456c207061676f2066616c6c6f00000000000000000000000000000000000000600082015250565b6000612d47600d836121a2565b9150612d5282612d11565b602082019050919050565b60006020820190508181036000830152612d7681612d3a565b9050919050565b7f5265656e7472616e637947756172643a207265656e7472616e742063616c6c00600082015250565b6000612db3601f836121a2565b9150612dbe82612d7d565b602082019050919050565b60006020820190508181036000830152612de281612da6565b9050919050565b7f4f776e61626c653a2063616c6c6572206973206e6f7420746865206f776e6572600082015250565b6000612e1f6020836121a2565b9150612e2a82612de9565b602082019050919050565b60006020820190508181036000830152612e4e81612e12565b905091905056fea2646970667358221220352f764f93db459cacc8c08ba0d00ba8f2777308daa01b0cff51549e4b5efb6964736f6c634300081c0033",
  "linkReferences": {},
  "deployedLinkReferences": {}
}